{
  "contractName": "Tweets",
  "abi": [
    {
      "anonymous": false,
      "inputs": [
        {
          "indexed": false,
          "internalType": "uint256",
          "name": "id",
          "type": "uint256"
        },
        {
          "indexed": false,
          "internalType": "string",
          "name": "content",
          "type": "string"
        }
      ],
      "name": "newTweet",
      "type": "event"
    },
    {
      "inputs": [
        {
          "internalType": "uint256",
          "name": "",
          "type": "uint256"
        }
      ],
      "name": "idToAddress",
      "outputs": [
        {
          "internalType": "address",
          "name": "",
          "type": "address"
        }
      ],
      "stateMutability": "view",
      "type": "function",
      "constant": true
    },
    {
      "inputs": [],
      "name": "tweetCount",
      "outputs": [
        {
          "internalType": "uint256",
          "name": "",
          "type": "uint256"
        }
      ],
      "stateMutability": "view",
      "type": "function",
      "constant": true
    },
    {
      "inputs": [
        {
          "internalType": "uint256",
          "name": "",
          "type": "uint256"
        }
      ],
      "name": "tweets",
      "outputs": [
        {
          "internalType": "uint256",
          "name": "id",
          "type": "uint256"
        },
        {
          "internalType": "string",
          "name": "content",
          "type": "string"
        }
      ],
      "stateMutability": "view",
      "type": "function",
      "constant": true
    },
    {
      "inputs": [
        {
          "internalType": "string",
          "name": "_content",
          "type": "string"
        }
      ],
      "name": "createTweet",
      "outputs": [],
      "stateMutability": "nonpayable",
      "type": "function"
    },
    {
      "inputs": [
        {
          "internalType": "uint256",
          "name": "id",
          "type": "uint256"
        }
      ],
      "name": "getAddressById",
      "outputs": [
        {
          "internalType": "address",
          "name": "",
          "type": "address"
        }
      ],
      "stateMutability": "view",
      "type": "function",
      "constant": true
    }
  ],
  "bytecode": "0x60806040526000805534801561001457600080fd5b5061083a806100246000396000f3fe608060405234801561001057600080fd5b50600436106100575760003560e01c80632a2d0c471461005c5780634a7782b31461008c5780637c9cd2bc146100aa5780638d80c922146100c6578063e8d857b0146100f6575b600080fd5b610076600480360381019061007191906104cd565b610127565b604051610083919061054d565b60405180910390f35b61009461015a565b6040516100a19190610568565b60405180910390f35b6100c460048036038101906100bf919061048c565b610160565b005b6100e060048036038101906100db91906104cd565b610273565b6040516100ed919061054d565b60405180910390f35b610110600480360381019061010b91906104cd565b6102b0565b60405161011e929190610583565b60405180910390f35b60026020528060005260406000206000915054906101000a900473ffffffffffffffffffffffffffffffffffffffff1681565b60005481565b6001604051806040016040528060005481526020018381525090806001815401808255809150506001900390600052602060002090600202016000909190919091506000820151816000015560208201518160010190805190602001906101c892919061036c565b50505033600260008054815260200190815260200160002060006101000a81548173ffffffffffffffffffffffffffffffffffffffff021916908373ffffffffffffffffffffffffffffffffffffffff16021790555060008081548092919061023090610706565b91905055507f3dad177fcd8d4b794a8e6263734862f3df32cdcf7d1b169d7f990200d4c7311e60005482604051610268929190610583565b60405180910390a150565b60006002600083815260200190815260200160002060009054906101000a900473ffffffffffffffffffffffffffffffffffffffff169050919050565b600181815481106102c057600080fd5b90600052602060002090600202016000915090508060000154908060010180546102e9906106a3565b80601f0160208091040260200160405190810160405280929190818152602001828054610315906106a3565b80156103625780601f1061033757610100808354040283529160200191610362565b820191906000526020600020905b81548152906001019060200180831161034557829003601f168201915b5050505050905082565b828054610378906106a3565b90600052602060002090601f01602090048101928261039a57600085556103e1565b82601f106103b357805160ff19168380011785556103e1565b828001600101855582156103e1579182015b828111156103e05782518255916020019190600101906103c5565b5b5090506103ee91906103f2565b5090565b5b8082111561040b5760008160009055506001016103f3565b5090565b600061042261041d846105d8565b6105b3565b90508281526020810184848401111561043a57600080fd5b610445848285610661565b509392505050565b600082601f83011261045e57600080fd5b813561046e84826020860161040f565b91505092915050565b600081359050610486816107ed565b92915050565b60006020828403121561049e57600080fd5b600082013567ffffffffffffffff8111156104b857600080fd5b6104c48482850161044d565b91505092915050565b6000602082840312156104df57600080fd5b60006104ed84828501610477565b91505092915050565b6104ff81610625565b82525050565b600061051082610609565b61051a8185610614565b935061052a818560208601610670565b610533816107dc565b840191505092915050565b61054781610657565b82525050565b600060208201905061056260008301846104f6565b92915050565b600060208201905061057d600083018461053e565b92915050565b6000604082019050610598600083018561053e565b81810360208301526105aa8184610505565b90509392505050565b60006105bd6105ce565b90506105c982826106d5565b919050565b6000604051905090565b600067ffffffffffffffff8211156105f3576105f26107ad565b5b6105fc826107dc565b9050602081019050919050565b600081519050919050565b600082825260208201905092915050565b600061063082610637565b9050919050565b600073ffffffffffffffffffffffffffffffffffffffff82169050919050565b6000819050919050565b82818337600083830152505050565b60005b8381101561068e578082015181840152602081019050610673565b8381111561069d576000848401525b50505050565b600060028204905060018216806106bb57607f821691505b602082108114156106cf576106ce61077e565b5b50919050565b6106de826107dc565b810181811067ffffffffffffffff821117156106fd576106fc6107ad565b5b80604052505050565b600061071182610657565b91507fffffffffffffffffffffffffffffffffffffffffffffffffffffffffffffffff8214156107445761074361074f565b5b600182019050919050565b7f4e487b7100000000000000000000000000000000000000000000000000000000600052601160045260246000fd5b7f4e487b7100000000000000000000000000000000000000000000000000000000600052602260045260246000fd5b7f4e487b7100000000000000000000000000000000000000000000000000000000600052604160045260246000fd5b6000601f19601f8301169050919050565b6107f681610657565b811461080157600080fd5b5056fea2646970667358221220d9ea5d88d9db56bad158659fdcdb85fb8a46ec61d452f908024950be4b267b3c64736f6c63430008040033",
  "immutableReferences": {},
  "source": "pragma solidity >=0.4.22 <0.9.0;\n\ncontract Tweets {\n    uint256 public tweetCount = 0;\n    event newTweet(uint256 id, string content);\n\n    struct Tweet {\n        uint256 id;\n        string content;\n    }\n\n    Tweet[] public tweets;\n\n    mapping(uint256 => address) public idToAddress;\n\n    function createTweet(string memory _content) public {\n        tweets.push(Tweet(tweetCount, _content));\n        idToAddress[tweetCount] = msg.sender;\n        tweetCount++;\n\n        emit newTweet(tweetCount, _content);\n    }\n\n    function getAddressById(uint256 id) public view returns (address) {\n        return idToAddress[id];\n    }\n}\n",
  "sourcePath": "/usr/src/app/contracts/Tweets.sol",
  "compiler": {
    "name": "solc",
    "version": "0.8.4+commit.c7e474f2.Emscripten.clang"
  },
  "schemaVersion": "3.4.1",
  "updatedAt": "2021-06-06T22:52:40.154Z",
  "networkType": "ethereum",
  "devdoc": {
    "kind": "dev",
    "methods": {},
    "version": 1
  },
  "userdoc": {
    "kind": "user",
    "methods": {},
    "version": 1
  }
}